:100000000C942A000C9447000C9447000C94FE00BA
:100010000C9447000C9447000C9447000C94360154
:100020000C9447000C9447000C9445010C94470035
:100030000C9447000C9447000C9447000C94470024
:100040000C9447000C9447000C9447000C94470014
:100050000C94470011241FBECFE5D8E0DEBFCDBF12
:1000600010E0A0E6B0E0EAEBF9E002C005900D92E6
:10007000AA36B107D9F720E0AAE6B0E001C01D9288
:10008000AB38B207E1F70E9473010C94DB040C94C7
:10009000000087B1806487B987B18E7F87B987B147
:1000A0008D7F87B987B18B7F87B987B1877F87B904
:1000B00087B18F7E87B987B18F7D87B986B181601F
:1000C00086B986B18D7F86B986B18B7F86B986B1B8
:1000D000806886B9089586B1806486B9309BFECF6A
:1000E00034B185B190E0982F882726B1206126B9D8
:1000F000832B089587B38B7F87BB87B38D7F87BBA7
:1001000087B3877F87BB88B3846088BB88B38260EE
:1001100088BB88B3886088BB789484B7806484BFC8
:100120008BB780628BBF089596B3892F827091FD43
:100130000AC0E7EAF1E63197F1F700C00000B19993
:1001400003C081E0089580E0089596B3892F8870F8
:1001500093FD0AC0E7EAF1E63197F1F700C000002D
:10016000B39903C081E0089580E0089587B380616A
:1001700087BB089587B3806287BB089588B3806189
:1001800088BB089588B3806288BB089588B38F7E4A
:1001900088BB089588B38F7D88BB08958EBB9FBBB5
:1001A0008CB381608CBB8DB308958EBB9FBB6DBB40
:1001B0000FB607FE05C08FB78F778FBF91E001C0E4
:1001C00090E08CB384608CBB8CB382608CBBE19973
:1001D000FECF913019F48FB780688FBF089587B331
:1001E000816087BB88B38E7F88BB089588B38160A8
:1001F00088BB089588B38E7F88BB08951F920F92A5
:100200000FB60F9211242F933F934F935F936F93E9
:100210007F938F939F93AF93BF93EF93FF938091BF
:100220006D0081110DC081E080936D0080E090E051
:100230000E94CE0090E090936F0080936E0005C006
:100240008150823010F410926D00FF91EF91BF91B8
:10025000AF919F918F917F916F915F914F913F915E
:100260002F910F900FBE0F901F9018951F920F9215
:100270000FB60F9211248F9381E080936B008F91C2
:100280000F900FBE0F901F9018951F920F920FB6F0
:100290000F9211242F933F938F939F9380916D0022
:1002A00081508230B8F480916C008F5F80936C0035
:1002B000982F937051F4209170003091710091E06B
:1002C00029273093710020937000853118F081E068
:1002D00080936D009F918F913F912F910F900FBE52
:1002E0000F901F9018950E940A0380916D00813035
:1002F00021F030F0823039F0F8CF0E94A602F5CF1D
:100300000E944A03F2CF0E94F701EFCF805A9F4F1D
:10031000FC01808182BB0895813039F488B3806408
:1003200088BB88B38F7788BB0895823031F488B357
:10033000806888BB88B38F7B88BB089588B38F7B28
:1003400088BB88B38F7788BB08958FEF81BB87B355
:10035000806487BB87B3806887BB0E949E01089535
:1003600012BA08950F931F93CF93DF93AC019C01B2
:10037000ADECBCEC0E94B804EC01D695C795D695BF
:10038000C795D695C795CE01880F991FCC0FDD1F55
:10039000CC0FDD1FCC0FDD1FC80FD91FCA018C1B6E
:1003A0009D0BEC01CA016AE070E00E94A4048B017D
:1003B00081E00E948C01CE0199270E94860181EE86
:1003C00094E00197F1F700C0000082E00E948C01E8
:1003D000C80199270E94860181EE94E00197F1F708
:1003E00000C00000DF91CF911F910F9108950E94EE
:1003F000C6000E94CA000E94FA008091700090918D
:100400007100019739F480916E0090916F000E9405
:10041000B20102C00E94B0010E949400813089F4B0
:1004200080916E0090916F008B34910550F4059689
:1004300090936F0080936E0010926C000E94B20146
:1004400014C00E94A500813081F480916E009091CB
:100450006F008432910548F0059790936F00809368
:100460006E0010926C000E94B20160916E0080E0FC
:1004700090E00E94D50008958091740090917500DD
:10048000AC014B5F5F4F20916E0030916F002417DD
:10049000350768F4BC01655071096217730738F4B9
:1004A0000E94C6000E94CA000E94FA000895241704
:1004B000350738F40E94C6000E94C2000E94F60070
:1004C000089505978217930778F40E94BE000E9452
:1004D000CA008091700090917100019719F40E94F8
:1004E000F60008950E94FA00089520916A0030E015
:1004F000220F331F820F931FFC0171836083809151
:100500006A008F5F80936A008A3011F410926A004B
:100510000895BC0190E020E030E00BC0E92FF0E04E
:10052000EE0FFF1FE60FF71F40815181240F351F8B
:100530009F5F9A3098F3ADECBCEC0E94B80496959E
:1005400087959695879596958795089580916B00E8
:10055000813009F50E946B00BC0180E090E00E94B0
:10056000A90320E030E040E05FE30E940F040E9416
:100570007A03709373006093720087E790E00E94A3
:10058000750287E790E00E9489029093750080933E
:10059000740010926B0080917200909173000E9421
:1005A000B2010E943C020E949400813021F00E941E
:1005B000A500813039F40E949E0110926C0082E007
:1005C00080936D0008950E946B00BC0180E090E074
:1005D0000E94A90320E030E040E05FE30E940F04A6
:1005E0000E947A0380E009C0E82FF0E0EE0FFF1FC1
:1005F000E958FF4F718360838F5F8A30A8F387E7E4
:1006000090E00E948902909375008093740010928C
:100610006A0008950E9449000E947A000E94BA0070
:100620000E94B6000E94EF000E94A5010E9466038E
:100630000E9455030E94760310926D0080E090E0C6
:100640000E94CE008F3F51F080E090E00E94CE00EB
:1006500090E090936F0080936E0006C08CE390E072
:1006600090936F0080936E000E94E30260916E0091
:1006700080E090E00E94D500089585B78F7E85BF09
:1006800085B78F7D85BF85B78F7B85BF85B7806830
:1006900085BF08950E94B0010E94FA000E94C60022
:1006A0000E94CA000E943D0308958EB588608EBDE9
:1006B0001BBC82E68ABD8EB581608EBD8EB58D7FF6
:1006C0008EBD8EB584608EBD7894089583B78860A2
:1006D00083BF8AEF8CBF83B7816083BF83B7846099
:1006E00083BF789489B7826089BF089589B7806194
:1006F00089BF08950E94EE0388F09F5798F0B92FA4
:100700009927B751B0F0E1F0660F771F881F991F46
:100710001AF0BA95C9F714C0B13091F00E940804DC
:10072000B1E008950C940804672F782F8827B85FEC
:1007300039F0B93FCCF3869577956795B395D9F79E
:100740003EF490958095709561957F4F8F4F9F4FA8
:100750000895E89409C097FB3EF4909580957095B4
:1007600061957F4F8F4F9F4F9923A9F0F92F96E9FD
:10077000BB279395F695879577956795B795F11172
:10078000F8CFFAF4BB0F11F460FF1BC06F5F7F4F0F
:100790008F4F9F4F16C0882311F096E911C0772321
:1007A00021F09EE8872F762F05C0662371F096E82A
:1007B000862F70E060E02AF09A95660F771F881FF9
:1007C000DAF7880F9695879597F9089557FD905811
:1007D000440F551F59F05F3F71F04795880F97FB05
:1007E000991F61F09F3F79F08795089512161306BF
:1007F0001406551FF2CF4695F1DF08C016161706EE
:100800001806991FF1CF8695710561050894089522
:10081000E894BB2766277727CB0197F908950E94B4
:1008200022040C9493040E94850438F00E948C04E6
:1008300020F0952311F00C947C040C948204112474
:100840000C9409040E94E60370F3959FC1F3950F81
:1008500050E0551F629FF001729FBB27F00DB11D44
:10086000639FAA27F00DB11DAA1F649F6627B00DD4
:10087000A11D661F829F2227B00DA11D621F739FBD
:10088000B00DA11D621F839FA00D611D221F749FCB
:100890003327A00D611D231F849F600D211D822F12
:1008A000762F6A2F11249F5750409AF0F1F0882339
:1008B0004AF0EE0FFF1FBB1F661F771F881F915066
:1008C0005040A9F79E3F510580F00C947C040C9495
:1008D00009045F3FE4F3983ED4F3869577956795D6
:1008E000B795F795E7959F5FC1F7FE2B880F911D90
:1008F0009695879597F9089597F99F6780E870E036
:1009000060E008959FEF80EC089500240A94161685
:10091000170618060906089500240A9412161306ED
:10092000140605060895092E0394000C11F488237B
:1009300052F0BB0F40F4BF2B11F460FF04C06F5F97
:100940007F4F8F4F9F4F089597FB072E16F400940B
:1009500007D077FD09D00E94C70407FC05D03EF4FC
:10096000909581959F4F0895709561957F4F08955B
:10097000A29FB001B39FC001A39F700D811D1124E0
:10098000911DB29F700D811D1124911D0895AA1B08
:10099000BB1B51E107C0AA1FBB1FA617B70710F06A
:1009A000A61BB70B881F991F5A95A9F7809590959C
:0A09B000BC01CD010895F894FFCFBB
:0A09BA003F065B4F666D7D077F6FFF
:00000001FF
